{
  "_format": "hh-sol-artifact-1",
  "contractName": "MedicineStock",
  "sourceName": "contracts/MedicineStock.sol",
  "abi": [
    {
      "inputs": [
        {
          "internalType": "int256",
          "name": "_initialStock",
          "type": "int256"
        }
      ],
      "stateMutability": "nonpayable",
      "type": "constructor"
    },
    {
      "inputs": [],
      "name": "getStock",
      "outputs": [
        {
          "internalType": "int256",
          "name": "",
          "type": "int256"
        }
      ],
      "stateMutability": "view",
      "type": "function"
    },
    {
      "inputs": [
        {
          "internalType": "int256",
          "name": "_amount",
          "type": "int256"
        }
      ],
      "name": "increaseStock",
      "outputs": [],
      "stateMutability": "nonpayable",
      "type": "function"
    },
    {
      "inputs": [
        {
          "internalType": "int256",
          "name": "_amount",
          "type": "int256"
        }
      ],
      "name": "reduceStock",
      "outputs": [],
      "stateMutability": "nonpayable",
      "type": "function"
    },
    {
      "inputs": [],
      "name": "stock",
      "outputs": [
        {
          "internalType": "int256",
          "name": "",
          "type": "int256"
        }
      ],
      "stateMutability": "view",
      "type": "function"
    }
  ],
  "bytecode": "0x6080604052348015600f57600080fd5b506040516103f03803806103f08339818101604052810190602f91906071565b80600081905550506099565b600080fd5b6000819050919050565b6051816040565b8114605b57600080fd5b50565b600081519050606b81604a565b92915050565b6000602082840312156084576083603b565b5b6000609084828501605e565b91505092915050565b610348806100a86000396000f3fe608060405234801561001057600080fd5b506004361061004c5760003560e01c806301c54cd014610051578063ba710d981461006d578063bdf3c4ae14610089578063e38ffcd8146100a7575b600080fd5b61006b60048036038101906100669190610188565b6100c5565b005b61008760048036038101906100829190610188565b6100e0565b005b61009161013e565b60405161009e91906101c4565b60405180910390f35b6100af610144565b6040516100bc91906101c4565b60405180910390f35b806000808282546100d6919061020e565b9250508190555050565b60008113610123576040517f08c379a000000000000000000000000000000000000000000000000000000000815260040161011a906102ae565b60405180910390fd5b8060008082825461013491906102ce565b9250508190555050565b60005481565b60008054905090565b600080fd5b6000819050919050565b61016581610152565b811461017057600080fd5b50565b6000813590506101828161015c565b92915050565b60006020828403121561019e5761019d61014d565b5b60006101ac84828501610173565b91505092915050565b6101be81610152565b82525050565b60006020820190506101d960008301846101b5565b92915050565b7f4e487b7100000000000000000000000000000000000000000000000000000000600052601160045260246000fd5b600061021982610152565b915061022483610152565b925082820390508181126000841216828213600085121516171561024b5761024a6101df565b5b92915050565b600082825260208201905092915050565b7f416d6f756e74206d7573742062652067726561746572207468616e207a65726f600082015250565b6000610298602083610251565b91506102a382610262565b602082019050919050565b600060208201905081810360008301526102c78161028b565b9050919050565b60006102d982610152565b91506102e483610152565b92508282019050828112156000831216838212600084121516171561030c5761030b6101df565b5b9291505056fea2646970667358221220ea823c858f359a61d558e6788aadc2aa68eab9e91f6801c1f68e2209c0326ee164736f6c634300081c0033",
  "linkReferences": {},
  "deployedLinkReferences": {}
}