{
  "_format": "hh-sol-artifact-1",
  "contractName": "MedicineStock",
  "sourceName": "contracts/MedicineStock.sol",
  "abi": [
    {
      "anonymous": false,
      "inputs": [
        {
          "indexed": true,
          "internalType": "uint256",
          "name": "id",
          "type": "uint256"
        },
        {
          "indexed": false,
          "internalType": "string",
          "name": "name",
          "type": "string"
        },
        {
          "indexed": false,
          "internalType": "uint256",
          "name": "quantity",
          "type": "uint256"
        }
      ],
      "name": "MedicineAdded",
      "type": "event"
    },
    {
      "anonymous": false,
      "inputs": [
        {
          "indexed": true,
          "internalType": "uint256",
          "name": "id",
          "type": "uint256"
        },
        {
          "indexed": false,
          "internalType": "uint256",
          "name": "newQuantity",
          "type": "uint256"
        }
      ],
      "name": "StockDecreased",
      "type": "event"
    },
    {
      "anonymous": false,
      "inputs": [
        {
          "indexed": true,
          "internalType": "uint256",
          "name": "id",
          "type": "uint256"
        },
        {
          "indexed": false,
          "internalType": "uint256",
          "name": "newQuantity",
          "type": "uint256"
        }
      ],
      "name": "StockIncreased",
      "type": "event"
    },
    {
      "inputs": [
        {
          "internalType": "string",
          "name": "_name",
          "type": "string"
        },
        {
          "internalType": "uint256",
          "name": "_quantity",
          "type": "uint256"
        }
      ],
      "name": "addMedicine",
      "outputs": [],
      "stateMutability": "nonpayable",
      "type": "function"
    },
    {
      "inputs": [
        {
          "internalType": "uint256",
          "name": "_id",
          "type": "uint256"
        },
        {
          "internalType": "uint256",
          "name": "_amount",
          "type": "uint256"
        }
      ],
      "name": "decreaseStock",
      "outputs": [],
      "stateMutability": "nonpayable",
      "type": "function"
    },
    {
      "inputs": [],
      "name": "getAllMedicines",
      "outputs": [
        {
          "internalType": "string[]",
          "name": "",
          "type": "string[]"
        },
        {
          "internalType": "uint256[]",
          "name": "",
          "type": "uint256[]"
        }
      ],
      "stateMutability": "view",
      "type": "function"
    },
    {
      "inputs": [
        {
          "internalType": "uint256",
          "name": "_id",
          "type": "uint256"
        }
      ],
      "name": "getMedicine",
      "outputs": [
        {
          "internalType": "string",
          "name": "",
          "type": "string"
        },
        {
          "internalType": "uint256",
          "name": "",
          "type": "uint256"
        }
      ],
      "stateMutability": "view",
      "type": "function"
    },
    {
      "inputs": [
        {
          "internalType": "uint256",
          "name": "_id",
          "type": "uint256"
        },
        {
          "internalType": "uint256",
          "name": "_amount",
          "type": "uint256"
        }
      ],
      "name": "increaseStock",
      "outputs": [],
      "stateMutability": "nonpayable",
      "type": "function"
    },
    {
      "inputs": [],
      "name": "medicineCount",
      "outputs": [
        {
          "internalType": "uint256",
          "name": "",
          "type": "uint256"
        }
      ],
      "stateMutability": "view",
      "type": "function"
    },
    {
      "inputs": [
        {
          "internalType": "uint256",
          "name": "",
          "type": "uint256"
        }
      ],
      "name": "medicines",
      "outputs": [
        {
          "internalType": "string",
          "name": "name",
          "type": "string"
        },
        {
          "internalType": "uint256",
          "name": "quantity",
          "type": "uint256"
        }
      ],
      "stateMutability": "view",
      "type": "function"
    }
  ],
  "bytecode": "0x6080604052348015600f57600080fd5b5061126d8061001f6000396000f3fe608060405234801561001057600080fd5b506004361061007d5760003560e01c8063a98394c61161005b578063a98394c6146100f0578063ad0662ff1461010c578063c79647cc14610128578063c85e766d146101445761007d565b80634dafd4901461008257806368f2b1d2146100a0578063a6742265146100bf575b600080fd5b61008a610175565b60405161009791906107c7565b60405180910390f35b6100a861017b565b6040516100b69291906109f2565b60405180910390f35b6100d960048036038101906100d49190610a69565b610339565b6040516100e7929190610ae0565b60405180910390f35b61010a60048036038101906101059190610c45565b610441565b005b61012660048036038101906101219190610ca1565b610528565b005b610142600480360381019061013d9190610ca1565b610641565b005b61015e60048036038101906101599190610a69565b610702565b60405161016c929190610ae0565b60405180910390f35b60015481565b606080600060015467ffffffffffffffff81111561019c5761019b610b1a565b5b6040519080825280602002602001820160405280156101cf57816020015b60608152602001906001900390816101ba5790505b509050600060015467ffffffffffffffff8111156101f0576101ef610b1a565b5b60405190808252806020026020018201604052801561021e5781602001602082028036833780820191505090505b50905060005b60015481101561032c57600080828152602001908152602001600020600001805461024e90610d10565b80601f016020809104026020016040519081016040528092919081815260200182805461027a90610d10565b80156102c75780601f1061029c576101008083540402835291602001916102c7565b820191906000526020600020905b8154815290600101906020018083116102aa57829003601f168201915b50505050508382815181106102df576102de610d41565b5b60200260200101819052506000808281526020019081526020016000206001015482828151811061031357610312610d41565b5b6020026020010181815250508080600101915050610224565b5081819350935050509091565b606060006001548310610381576040517f08c379a000000000000000000000000000000000000000000000000000000000815260040161037890610dbc565b60405180910390fd5b600080848152602001908152602001600020600001600080858152602001908152602001600020600101548180546103b890610d10565b80601f01602080910402602001604051908101604052809291908181526020018280546103e490610d10565b80156104315780601f1061040657610100808354040283529160200191610431565b820191906000526020600020905b81548152906001019060200180831161041457829003601f168201915b5050505050915091509150915091565b60008111610484576040517f08c379a000000000000000000000000000000000000000000000000000000000815260040161047b90610e4e565b60405180910390fd5b604051806040016040528083815260200182815250600080600154815260200190815260200160002060008201518160000190816104c2919061101a565b50602082015181600101559050506001547fd19ed2997779bdd7c0c657fd2a1bbcf4e3f642a49b129045326169d1f418f3758383604051610504929190610ae0565b60405180910390a26001600081548092919061051f9061111b565b91905055505050565b600154821061056c576040517f08c379a000000000000000000000000000000000000000000000000000000000815260040161056390610dbc565b60405180910390fd5b806000808481526020019081526020016000206001015410156105c4576040517f08c379a00000000000000000000000000000000000000000000000000000000081526004016105bb906111af565b60405180910390fd5b8060008084815260200190815260200160002060010160008282546105e991906111cf565b92505081905550817f2d38034acc8cc2731be613b77f96eff643c26a30ad8d4af40d6707ba578a3f9f6000808581526020019081526020016000206001015460405161063591906107c7565b60405180910390a25050565b6001548210610685576040517f08c379a000000000000000000000000000000000000000000000000000000000815260040161067c90610dbc565b60405180910390fd5b8060008084815260200190815260200160002060010160008282546106aa9190611203565b92505081905550817f7ab28845445f25a7f66f3936625aafb0b53cab6e645ea848f4bb361d6f455f9c600080858152602001908152602001600020600101546040516106f691906107c7565b60405180910390a25050565b600060205280600052604060002060009150905080600001805461072590610d10565b80601f016020809104026020016040519081016040528092919081815260200182805461075190610d10565b801561079e5780601f106107735761010080835404028352916020019161079e565b820191906000526020600020905b81548152906001019060200180831161078157829003601f168201915b5050505050908060010154905082565b6000819050919050565b6107c1816107ae565b82525050565b60006020820190506107dc60008301846107b8565b92915050565b600081519050919050565b600082825260208201905092915050565b6000819050602082019050919050565b600081519050919050565b600082825260208201905092915050565b60005b8381101561084857808201518184015260208101905061082d565b60008484015250505050565b6000601f19601f8301169050919050565b60006108708261080e565b61087a8185610819565b935061088a81856020860161082a565b61089381610854565b840191505092915050565b60006108aa8383610865565b905092915050565b6000602082019050919050565b60006108ca826107e2565b6108d481856107ed565b9350836020820285016108e6856107fe565b8060005b858110156109225784840389528151610903858261089e565b945061090e836108b2565b925060208a019950506001810190506108ea565b50829750879550505050505092915050565b600081519050919050565b600082825260208201905092915050565b6000819050602082019050919050565b610969816107ae565b82525050565b600061097b8383610960565b60208301905092915050565b6000602082019050919050565b600061099f82610934565b6109a9818561093f565b93506109b483610950565b8060005b838110156109e55781516109cc888261096f565b97506109d783610987565b9250506001810190506109b8565b5085935050505092915050565b60006040820190508181036000830152610a0c81856108bf565b90508181036020830152610a208184610994565b90509392505050565b6000604051905090565b600080fd5b600080fd5b610a46816107ae565b8114610a5157600080fd5b50565b600081359050610a6381610a3d565b92915050565b600060208284031215610a7f57610a7e610a33565b5b6000610a8d84828501610a54565b91505092915050565b600082825260208201905092915050565b6000610ab28261080e565b610abc8185610a96565b9350610acc81856020860161082a565b610ad581610854565b840191505092915050565b60006040820190508181036000830152610afa8185610aa7565b9050610b0960208301846107b8565b9392505050565b600080fd5b600080fd5b7f4e487b7100000000000000000000000000000000000000000000000000000000600052604160045260246000fd5b610b5282610854565b810181811067ffffffffffffffff82111715610b7157610b70610b1a565b5b80604052505050565b6000610b84610a29565b9050610b908282610b49565b919050565b600067ffffffffffffffff821115610bb057610baf610b1a565b5b610bb982610854565b9050602081019050919050565b82818337600083830152505050565b6000610be8610be384610b95565b610b7a565b905082815260208101848484011115610c0457610c03610b15565b5b610c0f848285610bc6565b509392505050565b600082601f830112610c2c57610c2b610b10565b5b8135610c3c848260208601610bd5565b91505092915050565b60008060408385031215610c5c57610c5b610a33565b5b600083013567ffffffffffffffff811115610c7a57610c79610a38565b5b610c8685828601610c17565b9250506020610c9785828601610a54565b9150509250929050565b60008060408385031215610cb857610cb7610a33565b5b6000610cc685828601610a54565b9250506020610cd785828601610a54565b9150509250929050565b7f4e487b7100000000000000000000000000000000000000000000000000000000600052602260045260246000fd5b60006002820490506001821680610d2857607f821691505b602082108103610d3b57610d3a610ce1565b5b50919050565b7f4e487b7100000000000000000000000000000000000000000000000000000000600052603260045260246000fd5b7f4d65646963696e6520494420646f6573206e6f74206578697374000000000000600082015250565b6000610da6601a83610a96565b9150610db182610d70565b602082019050919050565b60006020820190508181036000830152610dd581610d99565b9050919050565b7f5175616e74697479206d7573742062652067726561746572207468616e207a6560008201527f726f000000000000000000000000000000000000000000000000000000000000602082015250565b6000610e38602283610a96565b9150610e4382610ddc565b604082019050919050565b60006020820190508181036000830152610e6781610e2b565b9050919050565b60008190508160005260206000209050919050565b60006020601f8301049050919050565b600082821b905092915050565b600060088302610ed07fffffffffffffffffffffffffffffffffffffffffffffffffffffffffffffffff82610e93565b610eda8683610e93565b95508019841693508086168417925050509392505050565b6000819050919050565b6000610f17610f12610f0d846107ae565b610ef2565b6107ae565b9050919050565b6000819050919050565b610f3183610efc565b610f45610f3d82610f1e565b848454610ea0565b825550505050565b600090565b610f5a610f4d565b610f65818484610f28565b505050565b5b81811015610f8957610f7e600082610f52565b600181019050610f6b565b5050565b601f821115610fce57610f9f81610e6e565b610fa884610e83565b81016020851015610fb7578190505b610fcb610fc385610e83565b830182610f6a565b50505b505050565b600082821c905092915050565b6000610ff160001984600802610fd3565b1980831691505092915050565b600061100a8383610fe0565b9150826002028217905092915050565b6110238261080e565b67ffffffffffffffff81111561103c5761103b610b1a565b5b6110468254610d10565b611051828285610f8d565b600060209050601f8311600181146110845760008415611072578287015190505b61107c8582610ffe565b8655506110e4565b601f19841661109286610e6e565b60005b828110156110ba57848901518255600182019150602085019450602081019050611095565b868310156110d757848901516110d3601f891682610fe0565b8355505b6001600288020188555050505b505050505050565b7f4e487b7100000000000000000000000000000000000000000000000000000000600052601160045260246000fd5b6000611126826107ae565b91507fffffffffffffffffffffffffffffffffffffffffffffffffffffffffffffffff8203611158576111576110ec565b5b600182019050919050565b7f4e6f7420656e6f7567682073746f636b00000000000000000000000000000000600082015250565b6000611199601083610a96565b91506111a482611163565b602082019050919050565b600060208201905081810360008301526111c88161118c565b9050919050565b60006111da826107ae565b91506111e5836107ae565b92508282039050818111156111fd576111fc6110ec565b5b92915050565b600061120e826107ae565b9150611219836107ae565b9250828201905080821115611231576112306110ec565b5b9291505056fea26469706673582212205c748910ac6bcb4ff2cf729881b7757289af4896d4cd51b5a175340ffcba3c4a64736f6c634300081c0033",
  "linkReferences": {},
  "deployedLinkReferences": {}
}